:020000040800F2
:10000000202A0020F1010008995D00087D570008B2
:100010001D5D00081D0B00083B8D0008000000005E
:100020000000000000000000000000003D65000826
:10003000690B0008000000006562000849650008BF
:100040000B0200080B0200080B0200080B0200085C
:100050000B0200080B0200080B0200080B0200084C
:100060000B0200080B0200080B0200080B0200083C
:100070000B0200080B0200080B0200080B0200082C
:100080000B0200080B020008CD0900080B02000853
:10009000CD8C00080B0200080B0200086B0B000857
:1000A000C9650008D56500080B0200080B020008AE
:1000B0000B0200080B0200080B0200080B020008EC
:1000C0000B0200080B0200080B0200080B020008DC
:1000D0000B0200080B0200080B020008157600084E
:1000E0000B0200080B0200080B0200080B020008BC
:1000F0000B0200080B0200080B0200080B020008AC
:100100000B0200080B0200080B0200080B0200089B
:100110000B0200080B0200080B0200080B0200088B
:100120000B0200080B0200080B0200080B0200087B
:100130000B0200080B0200080B0200080B0200086B
:100140000B0200080B0200080B0200080B0200085B
:100150000B0200080B0200080B0200080B0200084B
:100160000B0200080B0200080B0200080B0200083B
:100170000B0200080B0200080B0200080B0200082B
:100180000B0200080B0200080B0200080B0200081B
:100190000B020008000000000B0200080B02000820
:1001A0000B0200080B0200080B0200080B020008FB
:1001B0000B0200080B0200080B0200080B020008EB
:1001C0000B0200080B0200080B0200080B020008DB
:1001D0000B0200080B020008DFF810D000F0B8FB9B
:1001E0000048004751A10008AFF30080202A0020FA
:1001F0000648804706480047FEE7FEE7FEE7FEE7C1
:10020000FEE7FEE7FEE7FEE7FEE7FEE7B96500086A
:10021000D90100082DE9F05F0546002092469B4673
:1002200088460646814640241BE02846414647460C
:10023000224600F01FFA53465A46C01A914110D385
:1002400011461846224600F006FA2D1A67EB0108FF
:100250004F4622460120002100F0FDF917EB00096E
:100260004E41201EA4F10104DFDC484631462A46F7
:100270004346BDE8F09FD2B201E000F8012B491ED1
:10028000FBD270470022F6E710B513460A46044633
:100290001946FFF7F0FF204610BD2DE9FE4F8046BE
:1002A00081EA0300C00F0C46009021F0004123F0CA
:1002B0000045B8EB0200A94105D2404621469046D0
:1002C0001C460B46024623F00040104347D0270D42
:1002D000C7F30A00C3F30A510290401A0190402864
:1002E0006BDAC3F3130040F4801B0098924620B1F0
:1002F0000023D2EB030A63EB0B0B01985946C0F1C4
:100300004002504600F0A7F906460D4650465946B1
:10031000019A00F0BFF910EB08006141002487EA60
:10032000115284EAE7731A4340D0009A62B3019AEB
:10033000012A4FEA075215DC001B61EB02014FF066
:10034000004202EA0752CDE90042001C41F580114B
:1003500032462B4600F01FFA03B0BDE8F08F40464E
:100360002146F9E7001B61EB0201001C41F58013F7
:1003700000185B412018A2F5001747EB030140EA83
:10038000D570B6196D4111E06D084FEA360645EAA1
:10039000C0754FEA0752001B61EB0201001C41F5DA
:1003A000801149084FEA30000019514132462B466E
:1003B00003B0BDE8F04F00F0DFB900980122400023
:1003C0000023D0EB020263EBE073009821464FEA72
:1003D000E074B8EB000061EB0401E9E783F000434F
:1003E0005BE781F0004158E72DE9FE4F81EA030405
:1003F00004F0004421F0004100944FF0000B23F082
:10040000004350EA01045ED052EA03045BD0C3F318
:100410000A54C1F30A552C44A4F2F3340194A0FB0E
:100420000254C1F3130141F48011C3F3130343F4E5
:10043000801301FB024400FB034E840A970A44EA3E
:10044000815447EA8357A4FB076802958D0A05FB90
:1004500007854FEA932C04FB0C542705029D4FEAB5
:10046000065847EA1637B5EB08056EEB070C870E02
:10047000920E47EA811742EA8312A7FB0201B6EB0C
:100480000B0164EB00042B0D43EA0C335E1844EBC4
:100490001C50DA465146E7FB0201C5F313044FEA4C
:1004A0000B3343EA14534FEA0432019C43EA060338
:1004B000A4F10C040294009CCDE900B400F06BF9A7
:1004C00003B0BDE8F08F00200146F9E72DE9F04DBB
:1004D00081EA030404F0004B21F0004514464FF07C
:1004E000000A23F0004150EA050220D054EA01023C
:1004F0001DD0C5F30A570246C5F31303C1F3130019
:10050000C1F30A5640F4801543F48013A7EB0608A4
:10051000101BD64608F2FD3873EB050002D308F134
:10052000010801E092185B41B8F1000F03DA0020E6
:100530000146BDE8F08D00204FF480110646844648
:100540000EE0171B73EB050705D3121B63EB0503C6
:1005500006434CEA010C49084FEA300092185B410F
:1005600050EA0107EDD152EA030012D082EA0400FA
:1005700083EA0501084305D0101BAB4106D20122D6
:10058000002306E000224FF0004302E06FF001027A
:1005900053101AEB06004CEB085110EB0A0041EB2C
:1005A0000B01BDE8F04D00F0E7B80EB5C10F80EAD1
:1005B000E0700844CA07002140F233438DE80E0082
:1005C0000A460B4600F0E7F803B000BD00F0004219
:1005D00030F000400AD0C10D01F56071C0F3160083
:1005E00042EA0151C208400711437047002001460A
:1005F000704701F0004330B421F0004150EA01029D
:1006000006D00A0DA2F56072C1F31301002A02DCC4
:1006100030BC00207047440F44EAC104C100E01818
:1006200030BC00EBC25000F047B830B50B46014675
:1006300000202022012409E021FA02F59D4205D381
:1006400003FA02F5491B04FA02F52844151EA2F12B
:100650000102F1DC30BD202A04DB203A00FA02F16D
:10066000002070479140C2F1200320FA03F31943A0
:1006700090407047202A04DB203A21FA02F0002142
:10068000704721FA02F3D040C2F1200291400843A2
:1006900019467047202A06DBCB17203A41FA02F0B0
:1006A00043EAE07306E041FA02F3D040C2F12002CF
:1006B00091400843194670470029A8BF7047401C65
:1006C000490008BF20F00100704710B4B0FA80FC68
:1006D00000FA0CF050EA010404BF10BC704749B1A5
:1006E000CCF1200421FA04F411FA0CF118BF012115
:1006F00021430843A3EB0C01CB1D4FEA00614FEAF5
:10070000102042BF002010BC704700EBC3501044C3
:100710000029A4BF10BC7047401C490008BF20F04E
:10072000010010BC7047F0B400F0004221F000411D
:1007300020F00040CE0DC30DC1F3160141F40001BD
:10074000C0F316004C42154640F40000761E09E046
:1007500010EB440002D582F0004240428842F7D8B4
:1007600040005B1EB342F9DA18B1F0BC0021FFF77C
:10077000ACBF2846F0BC704710B5141E73F10004DE
:1007800008DA401C41F1000192185B411A4301D183
:1007900020F0010010BD2DE9F04D92469B4611B1AD
:1007A000B1FA81F202E0B0FA80F220329046FFF70F
:1007B00052FF04460F4640EA0A0041EA0B01534645
:1007C0005A46084313D0114653EA010019D0C8F124
:1007D00040025046FFF74EFF05460E46504659462A
:1007E0004246FFF738FF084305D0012004E02046C9
:1007F0003946BDE8F08D0020054346EAE0762C43FB
:1008000037430A986305E40AA0EB08000022FD0ABA
:1008100044EA47540A3002D500200146E9E70105C1
:1008200010196941DDE9084500196941BDE8F04D3D
:10083000A2E72DE9FE4FC3F30A5701F0004500245B
:10084000C1F30A56C3F31303C1F3130143F4801336
:1008500012EB020AA64641F48011009543EB030C0B
:10086000A7F1010B16E0B0EB0A0061EB0C01071ECB
:1008700071F1000707DA4FF00008D0EB080085F0AF
:10088000004568EB0101171A73EB0107EBD3761EE5
:10089000001849415E45F6DA50EA010209D0CDE977
:1008A00000E5002213460296FFF775FF03B0BDE88E
:1008B000F08F20460099F9E7C1F30A52C1F3130102
:1008C00040F2FF3341F480119A4202DA00200146DF
:1008D000704740F233439A42A2F2334202DC524262
:1008E000FFF7C8BEFFF7B7BE30B5041E71F10004B4
:1008F00004DB4FF00044404264EB0101141E73F12D
:10090000000405DB1C464FF00043524263EB040336
:10091000994208BF904230BD002801DBC0F1004081
:10092000002901DBC1F10041814202D24FF00040B9
:1009300004E04FF0005001D14FF0C0404FEA206278
:10094000EFF3008162F31F6181F3008870470000BC
:10095000064C074D06E0E06840F0010394E807000C
:1009600098471034AC42F6D3FFF73AFC88A700084A
:10097000A8A7000870B58C1810F8015B15F00703E4
:1009800001D110F8013B2A1106D110F8012B03E028
:1009900010F8016B01F8016B5B1EF9D12B0705D430
:1009A0000023521E0DD401F8013BFAE710F8013B79
:1009B000CB1A921C03E013F8015B01F8015B521E95
:1009C000F9D5A142D8D3002070BD000010B504486D
:1009D00001F012FDBDE81040024801F00DBD00001D
:1009E000FC0100206802002070B5044600688168A0
:1009F0008268C1F3400112F0010F28D039BB816831
:100A000001F00D01012914D18168124A1140891C9D
:100A1000816021680320086002F0B6F9054612E003
:100A200002F0B2F9401B02280DD920688068C00787
:100A300009D0E06D40F01000E065206E40F001004C
:100A40002066012070BD20688068C007E8D10020C2
:100A500070BD0000C0FFFF7FF8B504460020009085
:100A60002068816811F0010F4AD18168254A11423E
:100A700037D18168D5432940491C81602068B0F195
:100A8000A04F02D02049884201D1204800E02048F0
:100A9000806800F0E07000020DD51E481E49006815
:100AA000B0FBF1F0401C00EB4000800000E0401E75
:100AB00000900028FBD102F067F906461BE0816830
:100AC00011F0010F03D181682940491C816002F0B7
:100AD0005BF9801B02280ED920680068C043C0075C
:100AE00009D0E06D40F01000E065206E40F001009C
:100AF00020660120F8BD20680168C943C907DED11E
:100B00000020F8BD3F0000800001005000030050AD
:100B10000007005018000020400D0300FEE70020F1
:100B2000704700207047000010B5002204490548B6
:100B300006F0F9FE0449034806F0ECFE002010BD63
:100B40001C1E00204C1100201C16002010B5014670
:100B5000034806F0DFFE024806F0A4FE002010BDA8
:100B60004C11002000207047704710B5402001F064
:100B7000D5FF802001F0D2FF4FF4807001F0CEFF4E
:100B8000BDE810404FF4007001F0C8BF72B6FEE738
:100B900010B5082009F0DEFB094903209FED090A82
:100BA00008700948012180ED040A80F8B11080F82E
:100BB000AA1080F8AB1080F8B21080F8B01010BD09
:100BC0004000002000004842500B00202DE9F04F6B
:100BD000DFF8189400252DED0C8B85B0D9F80010A6
:100BE000D9F80000097B491CC9B20173092902D94F
:100BF000D9F800000573FE4CD4F8981029B10020F4
:100C0000012904DBC4F8985004E00120F8E7491CEE
:100C1000C4F89810FFF7C9FC9FEDF61B53EC112B9D
:100C2000FFF7DCFBFFF7E5FC0BEE100AB4F8A800B9
:100C300040F2FF31884202D2401CA4F8A80094F888
:100C4000AC004FF0020A4FF0010B40B194F8AD0038
:100C5000062865D2DFE800F0640A10142228042078
:100C600084F8ACB084F8AD00002715E0B4F8A80013
:100C7000642803D384F8ADA005270DE004270BE01A
:100C8000B4F8A800B0F57A7F05D3062084F8AD004B
:100C9000A4F8A8504EE00127002610E0032084F8B5
:100CA000AD00A4F8A850F6E7B4F8A800142804D3BF
:100CB00084F8ADB0A4F8A850E0E703270126CC489B
:100CC000B43090ED001A90ED010AD0ED020ADFED8C
:100CD000CB1A21EE219A30EE201ADFEDC91A30EE40
:100CE000600A01EE619ADFEDC70AC749002020EED5
:100CF00020AAB0EE4B0A09F057FBBFEE00CAF7EE90
:100D000000CADFEDC2AA9FEDC2DADFEDC28ADFEDD5
:100D1000C29A00287DD094F8B10068B1002011E09B
:100D2000B4F8A800142805D3052084F8AD00A4F871
:100D3000A850C2E70227C1E7D9F800004168D4F8FB
:100D40009C00081A8046D9F80000B5EEC0BA406889
:100D5000F1EE10FAC4F89C0084F8B15002D28DED87
:100D600000CA09E0B5EEC0BAF1EE10FA02DDCDED31
:100D700000CA01E0CDED008A94ED170A79EE400A31
:100D80009DED000A60EE800ACDED010A94ED181A7F
:100D90003AEE411A21EE000A8DED000A60EE00BA2B
:100DA000B0EE6B0A00EEA00A8DED030AB5EEC00AA4
:100DB000F1EE10FA06D2B1EE400A08F0BDFAB1EE3B
:100DC000400A01E008F0B8FA8DED020A94F8AA0092
:100DD00094ED198A48B900EE108AD4ED230AB8EED2
:100DE000400A20EE290A00EE208ADDED010AB0EE6D
:100DF0006B0A00EEA00A8DED030AB5EEC00AF1EE13
:100E000010FA07D2B1EE400A08F096FAB1EE400AA5
:100E100002E061E008F090FA8DED030A9DED000A12
:100E2000DDED030AC0EE20BAB0EE480A07F0BAFFC3
:100E30006BEE80BA9DED010ADDED020AC0EE20DA0C
:100E4000B0EE480A08F0B0F94DEEC0BACDED00BAE8
:100E500094F8AB0020B194ED1A0A8DED010A0FE071
:100E600000EE108AD4ED1A0A94ED241AB8EE400A66
:100E700020EE290A40EE010ACDED010AB0EE600A2B
:100E8000DFED660A0BEEA00AF0EE4D0A8DED020AC8
:100E900020EE2A0A84ED110AB0EE480A09F0C6FADB
:100EA00084ED120A84ED179A84ED18AA84F8AA50EA
:100EB00084ED198A9DED020A84ED230A84F8AB5073
:100EC0009DED010A84ED1A0A9DED000ADFED540A3A
:100ED00020EE200A84ED240A012F06D0022F07D02D
:100EE000032F12D0042F34D11CE0C4ED0B8A30E064
:100EF000C4ED0BCAD4ED220AB0EE490AC4ED100AC3
:100F000008F030F884ED220A23E084ED0BCAD4ED1A
:100F1000210AB0EE490AC4ED0F0A08F047F884ED43
:100F2000210A16E0C4ED0B8A94ED100AD4ED0F0AE5
:100F300030EE200AB5EEC00AF1EE10FA04DB3248BA
:100F40001030C0ED008A04E02F489FED360A80ED96
:100F5000040A2D4F94ED120AA046D7ED040A30EE94
:100F6000200AF0EE4D0A09F061FA87ED010AB0EEB1
:100F7000401A01A96846F0EE4A0AB0EE490A05F0A7
:100F8000D7F81B4CDDED000AB434284894ED030A71
:100F9000DFED271A274930EE600ADFED230A9FEDC7
:100FA000261A8DED030ACDED000A98ED148A00EEA5
:100FB000208A16B1B0EE688A0EE018EE102A82423E
:100FC00002DDB0EE618A07E0B0EE480A10EE102AAA
:100FD0008A4201D9B0EE418A98ED0B2A3BEE080A0D
:100FE000464630EE02BA87ED02BA27E014A70008A1
:100FF000500B0020000000000000E03FABAA2A3F99
:10100000ABAAAA3E3ACD133F400000209F9DAE3FC1
:10101000DB0FC9400000000017B7D1380000C842FC
:1010200000606A46DB0F49401479923B4288C74012
:101030004288C7404288C7C04288C7C0D9F800204C
:10104000C846127B012A02D096ED0C0A03E096ED09
:101050001E0A86ED0C0A9DED012A30EE428A96EDBD
:10106000150A08EE200A10EE102A824202DDC7EDB2
:10107000031A08E010EE100A884202D987ED031A1D
:1010800001E087ED030AD7ED01CA97ED03CAB0EE80
:101090006C0A07F087FEF0EE40BAB0EE6C0A08F07A
:1010A00083F82BEE2B3A20EE0B2AE04800210CEEC1
:1010B000403A0CEE2B2A8DED013A8DED002AB5EE6B
:1010C000C02AC0ED008AF1EE10FAC0ED018AC0ED31
:1010D000028A00DD0121B0EE420ADFEDD54AF6EECC
:1010E000002A13EE240A20EE220AB5EEC00AF1EE21
:1010F00010FA00DD891CB0EE420AF0EE430A9FEDC3
:10110000CD5A10EE850A20EE220AB5EEC00AF1EEA5
:1011100010FA00DD091DFFEE081A9FEDC70AF7EE71
:10112000083A9FEDC64ADFEDC60A06296BD2DFE812
:1011300001F06A03162B405594ED041A80EE814AA3
:10114000B0EE431A21EE211AF0EE421A01EE801A97
:10115000F0EE431A61EEA31A24EE011A37E0D4ED43
:10116000041A23EE231AF0EE423A80EEA14A03EE6F
:10117000801AB0EE420A20EE050A60EE203A83EEB5
:10118000A10A24EE011A52E0D4ED043AB0EE420A6C
:1011900080EEA31A20EE040A03EE610A21EE001A83
:1011A000B0EE420A20EE240A60EE201A81EEA30A75
:1011B0003DE0B0EE421AD4ED043A21EE051A63EE9A
:1011C000211A21EE204A84EE231A80EEA34AF0EE83
:1011D000423A43EE801A24EE210A28E0B0EE420A99
:1011E00020EE240A60EE201A94ED040A81EE801AA3
:1011F000C0EE801AB0EE420A20EE040A03EE630A43
:1012000021EE800A13E094ED040AB0EE431AC0EE1A
:10121000804A22EE040AB0EE404A01EE634AF0EE44
:10122000433A03EEE10A24EE841A24EE800A854B49
:1012300071EE001A11EE902ACDED021A9A4209DDE4
:10124000C1EE213AB0EE631A71EE003AC0EE231AF5
:10125000B0EE610A072971EE001A70EEE10AF5EEB0
:10126000001A60EEA10ACDED020AF0EE601A41EE1E
:10127000220A35D2DFE801F0340409151C232C00C2
:10128000C0ED000AC0ED011A0FE0B0EE601AC0ED2B
:10129000001A00EE221A80ED011A00BFC0ED020A0A
:1012A0001EE0C0ED001AC0ED010A40EE220AF5E78B
:1012B000B0EE601A00EE221A80ED001A0CE0B0EEDB
:1012C000601AC0ED020A00EE221A80EC021A07E052
:1012D000C0ED000A40EE220AC0ED010AC0ED021A7C
:1012E00000EE101A0746B8EEC00A80ED030AD8F8DF
:1012F0000000007B012807D196ED110A86ED1F0A38
:1013000094ED050A86ED200A9FED4F0A474A8DEDC0
:10131000020ADDED030A28EE008AD83A60EE808AE0
:1013200002A903A8F0EE4A1AB0EE491AF0EE420AFA
:10133000B0EE430A08F04AFDD6F8A000411C02D0E6
:10134000401CC6F8A00096F8AE0040B196F8AF0079
:10135000012807D002281AD003280ED120E086F8F1
:10136000AEB011E0D6F8A000B0F57A7F05D3032027
:1013700086F8AF00C6F8A05023E094ED060AB5EE5B
:10138000C00AF1EE10FA2AD186F8AFA027E0A069D2
:10139000B0F17E5F23D186F8AFB0C6F8A0501EE052
:1013A00094ED060AB5EEC00AF1EE10FAECD0D6F8CC
:1013B000A00047F23051884203D3042086F8AF00E2
:1013C0000DE0D6ED1B0A96ED1C0A40EE290AC6ED8B
:1013D0001B0ADFED1E0A30EE200A86ED1C0A96ED90
:1013E000160A87ED040A9DED020A20EE2A0A87ED0F
:1013F000050A96ED140A08EEA90A86ED140A96ED80
:10140000150A08EE290A86ED150A9DED030A86EDF8
:10141000160AD8F80000D8F800104068401C486050
:1014200005B0BDEC0C8BBDE8F08F0000280C00204F
:10143000D7B3DD3FD7B3DDBFD7B35D3FD7B35DBF14
:1014400000007A4600007A463433B3417822203CCB
:1014500010B50B4C94ED1F0A84ED0D0A94ED200A93
:1014600084ED0E0A09F07CF894ED130A054884ED2A
:101470001E0A016800688968491C816010BD00006F
:10148000500B002014A70008F8B50026044600966B
:1014900090F858000D4601280BD0012084F8580020
:1014A0002046FFF7A1FA0100E06D04D040F01000E3
:1014B0002AE00220F8BD20F4885040F00200E065E8
:1014C00020688268134B1A4005F080431A4342F0AB
:1014D00000428260104A20680EE0009B5B1C009373
:1014E000934209D3E06D20F0020040F01000E06567
:1014F00084F858600120F8BD8368DB0FEDD1E06D02
:1015000020F0020040F00100E06584F858600846D1
:10151000F8BD0000C0FFFF3F02DE0400704700007E
:101520002DE9F84F4FF000090446CDF800900D4624
:1015300094F85820DFF8EC8361694F464846012A49
:101540000AD00126F84A84F8586041B1296A012975
:1015500005D0A36EEBB129E00220BDE8F88F6868E2
:10156000092838D1A96A4FF4785041B12B6801F0AD
:101570007C0100EA53400843E96A084302E0296815
:1015800000EA51402368D96C11400143D964606678
:1015900021E0C4E91971A96A286A31B101F07C011E
:1015A000401E0843E96A084300E0401E29682B7981
:1015B000C1F3846103F01F0399400143A06E401EF4
:1015C000A066636E43EA0103636604D12168C86CB8
:1015D00010401843C864206804F0FEF858B995F824
:1015E000250098B12068C16895F8262021F44011A3
:1015F00041EA4251C160206804F0F6F88246206852
:1016000004F0EAF85AEA00000DD0FCE095F8260054
:1016100095F82410400540EA01512068C26822F480
:1016200040121143E6E7A86A30B1E86A20B195F8A4
:10163000250001285ED003E095F82500012804D09C
:101640002068C16821F0007103E02068C16841F0A2
:101650000071C16095F83000012852D020680169FE
:1016600021F002010161AA6829682068B2F1004FE7
:1016700038D004F0D4F82068416921F0004141617C
:1016800020686969C268C2F3C102520091402A69A8
:10169000042A45D000EB82002B68026EDFF88CC272
:1016A00003F0F84302EA0C020B431A4342F00041F4
:1016B000016620682A69A96900EB8200026E22F0A7
:1016C00080720A430266297F22682869012924D092
:1016D0005FF0000102EB8000026E22F000720A430C
:1016E000026690E0002204F09AF82068416941F017
:1016F0000041C4E7E06D40F02000E0654FF00109D3
:10170000A8E7D5E90D01084321680A6922F4FF72B0
:1017100042F0020210430861A5E74FF00071D9E7DB
:10172000002104F04FF8400320684FF0000172D010
:1017300004F048F890FAA0F0B0FA80F1286842036B
:101740006ED090FAA0F0B0FA80F0814204D100226D
:101750001146206804F07AF80121206804F032F87C
:10176000400320684FF001015DD004F02BF890FA9F
:10177000A0F0B0FA80F12868420359D090FAA0F0A6
:10178000B0FA80F0814204D100220121206804F0E7
:101790005DF80221206804F015F8400320684FF03E
:1017A000020148D004F00EF890FAA0F0B0FA80F1EF
:1017B0002868420344D090FAA0F0B0FA80F0814249
:1017C00004D100220221206804F040F8032120689F
:1017D00003F0F8FF400320684FF0030133D003F01B
:1017E000F1FF90FAA0F0B0FA80F1286842032FD000
:1017F00090FAA0F0B0FA80F0814204D100220321D7
:10180000206804F023F82068816811F0010F22D0CD
:10181000B5E000E004E003F0D5FFC0F384618DE79C
:10182000C0F3846091E703F0CDFFC0F38461A2E7C9
:10183000C0F38460A6E703F0C5FFC0F38461B7E797
:10184000C0F38460BBE703F0BDFFC0F38461CCE765
:10185000C0F38460D0E72A7B296850F8B03FC1F319
:10186000120C23EA0C0302F0180C314A22FA0CF293
:101870000A4013430360E96841457DD1286841036C
:101880001BD090FAA0F1B1FA81F1491C01F01F01BF
:1018900009294FEA403131D8002911D090FAA0F13E
:1018A000B1FA81F101F1010101F01F0106FA01F61F
:1018B00009D100BFC0F3846109E0C0F38461E4E7AB
:1018C000C0F38461EEE790FAA0F1B1FA81F101F181
:1018D000010101F01F0146EA816102D1C0F3846079
:1018E00003E090FAA0F0B0FA80F000F1010000F0FF
:1018F0001F0000EB400041EA00513AE000290ED001
:1019000090FAA0F1B1FA81F101F1010101F01F019A
:1019100006FA01F60ED100BFC0F384610EE0C0F3F9
:101920008461F1E700007F400040100400F0FF03F5
:10193000FFFF070090FAA0F1B1FA81F101F1010176
:1019400001F01F0146EA816102D1C0F3846003E027
:1019500090FAA0F0B0FA80F000F1010000F01F0052
:101960003A4A00EB400002EB005041EA000141F02E
:101970000071AA68206800E001E003F050FF3448DD
:101980002B6803425ED022684FF0A04C3148324EA3
:10199000324D624501D0AA4201D1014600E03146F4
:1019A0008968DFF8BC8001F0E071434503D0DFF8BF
:1019B000B480434520D15FEA01281DD4624505D09B
:1019C000294B9A423ED1AA4200D0304641F4000150
:1019D000826822F0E0720A43826024482449006849
:1019E000B0FBF1F0801C00EB4000800000E0401EE6
:1019F00000900028FBD125E0DFF8788043450FD127
:101A00005FEAC1180CD4AA4202D11B4B9A4219D0EA
:101A1000624502D0AA4200D0304641F080710CE00D
:101A2000DFF8588043450DD14B020BD4AA4209D0B0
:101A3000624500D0304641F48001826822F0E072B5
:101A40000A43826084F85870484686E5000020FE0C
:101A50000000088000030050000700500001005003
:101A6000000021C31000C0900006005018000020A4
:101A7000400D0300000052C700050050000084CB59
:101A800070B53B480068D0F880003A4D81B23A48C2
:101A900029800068D0F88000A1F2FA7180B26880D5
:101AA00000EE101AA0F2EE7001EE100AB8EEC00AB5
:101AB000DFED320AB8EEC11A314C20EE200A61EE99
:101AC000200A84EC020AB1EE400A30EE600A84ED8E
:101AD000020A04F0C9FBDFED2B0A9FED2B1A2B48FD
:101AE00060EE200A80EE810AF1EE0C0A85ED010A13
:101AF00080ED870A20EE200A08F0BEFB10EE100AE7
:101B0000FEF764FD9FED221B53EC112BFEF766FCE4
:101B1000FEF76FFD686020480078012804D09FED33
:101B20001F0A84ED060A70BDB7EE000A84ED060AAE
:101B3000FFF74CF8FFF78CFC19481A4990ED000AA2
:101B40000B68BCEEC00A10EE102A5A6390ED010A31
:101B50000B68BCEEC00A10EE102A9A6390ED020AE0
:101B60000968BCEEC00A10EE100AC86370BD000020
:101B7000FC0100200000002068020020A4FC243D9D
:101B8000040C0020DB0FC94000707F4618090020BC
:101B90004AECDADE6E291740240000200000000025
:101BA000280C002038030020704700002DE9F04188
:101BB000044600684FF0A0453E4FA84201D0B8420D
:101BC00001D13D4900E03D49896801F01F0603F05D
:101BD00003FE08BB2168C868C96C00F0004011F41E
:101BE000C07F00D190B194F85800012814D0012092
:101BF00084F858002046FEF72FFF01004FF0000246
:101C00000CD084F858200846BDE8F081E06D40F023
:101C10002000E0650120F7E70220F5E7E06DC00550
:101C200004D5206E20F00800206600E02266E06DFA
:101C300042F20103984340F48050E0652068204B55
:101C4000DFF880C0B84201D1AE4604E0984201D12D
:101C5000E64600E08646864500D02EB9D4F85CE022
:101C60002EF4801EC4F85CE04FF0600EC0F800E077
:101C700084F858202068B84204D0984201D16546C3
:101C800000E00546854209D046B1062E06D0072E53
:101C900004D0E06D40F48010E065B4E7C26812F053
:101CA000007FB0D18268084B1A4042F0080282607F
:101CB000A9E7000000010050000300500007005099
:101CC0000005005000040050C0FFFF7F2DE9F041E7
:101CD000044600684FF0A0454C4FA84201D0B842DE
:101CE00001D14B4900E04B49896801F01F0603F020
:101CF00073FD08BB2168C868C96C00F0004011F48E
:101D0000C07F00D190B194F85800012814D0012070
:101D100084F858002046FEF79FFE01004FF00002B5
:101D20000CD084F858200846BDE8F081E06D40F002
:101D30002000E0650120F7E70220F5E7E06DC0052F
:101D400004D5206E20F00800206600E02266E06DD9
:101D500042F20103984340F48050E06520682E4B26
:101D6000DFF8B8C0B84201D1AE4604E0984201D1D4
:101D7000E64600E08646864500D02EB9D4F85CE001
:101D80002EF4801EC4F85CE04FF0600EC0F800E056
:101D900084F858202068C268920203D5426842F451
:101DA00080624260A06908282068426807D022F05B
:101DB000400242602068426842F0200206E022F0C1
:101DC000200242602068426842F04002426020687F
:101DD000B84204D0984201D1654600E005468542EC
:101DE00009D046B1062E06D0072E04D0E06D40F48F
:101DF0008010E06597E7C26812F0007F93D1826897
:101E0000074B1A4042F0080282608CE70001005044
:101E1000000300500007005000050050000400506F
:101E2000C0FFFF7F704770472DE9F04F044690F8E0
:101E300058009BB00F464FF0000B012812D0012034
:101E400084F8580000261796189620684FF0A0488E
:101E5000DFF81C91DFF81CA1474D404506D128460C
:101E6000009508E002201BB0BDE8F08F48450AD17C
:101E70005046CDF800A003F0B7FC0090206803F0B6
:101E8000B3FC40B109E0E06D40F02000E06584F86B
:101E900058600120E7E7009850B1E06D40F0200065
:101EA000E0654FF0010B00BF84F858605846DAE750
:101EB00020684146884201D0A84201D12F4800E065
:101EC0002F48D7F800C02F4B40F61F72BCF1000F0F
:101ED0002DD0D0F808C094F838802CF4604C4CEA2F
:101EE000483CD7F804804CEA080CC0F808C0D4F885
:101EF00000C08C4501D0AC4504D18968AB6801F0C5
:101F0000010109E0D9F80810DAF8085001F00101E0
:101F100005F001059B68294303F001031943C3D170
:101F2000BB68396819438368934319431DE0876888
:101F300027F46047876027688F4201D0AF4204D101
:101F40008968AB6801F0010109E0D9F80810DAF8F6
:101F5000085001F0010105F001059B68294303F0D9
:101F600001031943A0D18168914381609CE700007F
:101F70000004005000050050000100500003005014
:101F800000070050000600502DE9F84F00270446D6
:101F9000009790F85800DFF81C840D46B9460128D8
:101FA00011D0012684F85860206803F019FC60B154
:101FB000E06D40F02000E0655FF0010784F8589084
:101FC0003846BDE8F88F0220FBE7D5E900210C2355
:101FD000206803EA91131844036B01F01F014FF0CE
:101FE0001F0C0CFA01FCC2F3846223EA0C038A4042
:101FF00013430363206803F0F3FB8246206803F079
:10200000E7FB5AEA00003CD1AA6829682068B2F1CF
:10201000004F37D003F0F4FB2068416921F0004104
:10202000416120686969C268C2F3C10252009140EF
:102030002A69042A31D000EB82002B68026EDFF897
:1020400078C303F0F84302EA0C020B431A4342F050
:102050000041016622682869A96902EB8000026ECE
:1020600022F080720A430266297F226828690129CA
:1020700010D0002102EB8000026E22F000720A43B1
:1020800002667DE0002203F0BBFB2068416941F05D
:102090000041C5E74FF00071ECE7002103F08CFB35
:1020A000400320684FF0000172D003F085FB90FAE6
:1020B000A0F0B0FA80F1286842036ED090FAA0F048
:1020C000B0FA80F0814204D100221146206803F06A
:1020D000B5FB0121206803F06FFB400320684FF03F
:1020E00001015DD003F068FB90FAA0F0B0FA80F136
:1020F0002868420359D090FAA0F0B0FA80F08142EB
:1021000004D100220121206803F098FB02212068FD
:1021100003F052FB400320684FF0020148D003F067
:102120004BFB90FAA0F0B0FA80F12868420344D04B
:1021300090FAA0F0B0FA80F0814204D1002202218E
:10214000206803F07BFB0321206803F035FB40038C
:1021500020684FF0030133D003F02EFB90FAA0F07B
:10216000B0FA80F1286842032FD090FAA0F0B0FABC
:1021700080F0814204D100220321206803F05EFB3D
:102180002068816811F0010F22D0ACE000E004E08B
:1021900003F012FBC0F384618DE7C0F3846091E724
:1021A00003F00AFBC0F38461A2E7C0F38460A6E7F2
:1021B00003F002FBC0F38461B7E7C0F38460BBE7C0
:1021C00003F0FAFAC0F38461CCE7C0F38460D0E78F
:1021D0002A7B296850F8B03FC1F3120C23EA0C03A4
:1021E00002F0180C754A22FA0CF20A4013430360FD
:1021F000E968414577D1286841031CD090FAA0F1E5
:10220000B1FA81F1491C01F01F0109294FEA40315F
:1022100032D8002912D000BF90FAA0F1B1FA81F1B2
:1022200001F1010101F01F0106FA01F609D100BF19
:10223000C0F3846109E0C0F38461E3E7C0F3846123
:10224000EEE790FAA0F1B1FA81F101F1010101F09C
:102250001F0146EA816102D1C0F3846003E090FA75
:10226000A0F0B0FA80F000F1010000F01F0000EBD8
:10227000400041EA005132E000290ED090FAA0F16E
:10228000B1FA81F101F1010101F01F0106FA01F635
:1022900006D100BFC0F3846106E0C0F38461F1E7BA
:1022A00090FAA0F1B1FA81F101F1010101F01F01F1
:1022B00046EA816102D1C0F3846003E090FAA0F0A5
:1022C000B0FA80F000F1010000F01F003C4A00EB82
:1022D000400002EB005041EA000141F00071AA68A1
:1022E000206803F08DFA37482B6803423FF466AE4E
:1022F00021684FF0A04C3448344E354D614501D033
:10230000A94201D1024600E032469268DFF8C4805B
:1023100002F0E072434503D0DFF8BC80434521D191
:102320005FEA02281ED4614506D02C4B99427FF407
:1023300045AEA94200D0304642F40001826822F046
:10234000E0720A438260264826490068B0FBF1F03B
:10235000401C00EB4000800000E0401E0090002880
:10236000FBD12BE6DFF8808043450FD15FEAC2182E
:102370000CD4A94202D11D4B9942F2D0614502D042
:10238000A94200D0304642F080710CE0DFF8608056
:102390004345E6D15302E4D4A942E2D0614500D0DE
:1023A000304642F48001826822F0E0720A43826083
:1023B00004E6000000007F4000F0FF03FFFF07007D
:1023C000000020FE000008800003005000070050BD
:1023D00000010050000021C31000C0900006005012
:1023E00018000020400D0300000052C700050050F7
:1023F000000084CB704770472DE9F84F0446006811
:10240000066845684FF0A048DFF89092404501D03B
:10241000484501D1A24800E0A248806800F01F07AB
:10242000B0070ED5A8070CD5E06DC00603D4E06D4B
:1024300040F40060E0652046FFF770F82168022054
:102440000860DFF864B2DFF864A2700701D568079E
:1024500003D430073FD528073DD5E06DC00603D42F
:10246000E06D40F40070E065206803F0C1F960B3EE
:102470002068484501D1424604E0584501D1524602
:1024800000E00246824208D03FB1052F05D0092F57
:1024900003D0484503D1414606E0C16805E05845F0
:1024A00001D1514600E00146C96889040DD4016894
:1024B00009070AD503F094F958B3E06D40F0100015
:1024C000E065206E40F0010020662046FFF792FF95
:1024D00021680C200860B00601D5A80603D4700658
:1024E0005FD568065DD5E06DC00603D4E06D40F4AD
:1024F0000050E0652068C16C11F4C07F1AD0002143
:10250000009103F075F902462068484514D143460E
:1025100017E02068416821F00C014160E06D20F473
:102520008070E065E06DC004CFD4E06D40F0010044
:10253000E065CAE70121E3E7584501D1534600E0D1
:102540000346834208D03FB1062F05D0072F03D0A2
:10255000484503D1414606E0C16805E0584501D130
:10256000514600E00146C968009BA3B18B0102D52A
:102570008AB18A040FD4026852060CD589020AD4A3
:1025800003F026F9F0B3E06D40F01000E065206E36
:1025900040F0010020662046FFF772FA21686020B3
:1025A000086030060BD5280609D5E06D40F4803070
:1025B000E065204600F094F9216880200860F0056D
:1025C0000CD5E8050AD5E06D40F40030E065204602
:1025D000FFF728FC21684FF480700860B0050CD527
:1025E000A8050AD5E06D40F48020E0652046FFF79D
:1025F0001AFC21684FF400700860F00631D5E80637
:102600002FD500E009E0E06BE8B12068EFB340456A
:1026100001D0484512D1224811E02068416821F0DC
:1026200060014160E06D20F48050E065E06DC00520
:10263000B1D4E06D40F00100E065ACE71948806876
:1026400000F4604050B1E06D40F48060E065206EC1
:1026500040F0020020662046FFF7CDFE21681020E2
:102660000860700517D5680515D5E06D40F4804009
:10267000E065206E40F00800206621684FF480601D
:1026800008602046BDE8F84F00E001E0FFF78CBA93
:10269000C068C007D6E7BDE8F88F00000001005011
:1026A00000030050000700500005005000040050D7
:1026B000F8B54FF0000504002E46009502D0E06DFD
:1026C00010B107E00120F8BD204600F00BF92666A6
:1026D00084F8586020688168C1F3407119B181683D
:1026E000734A1140816020688168C1F3007189B923
:1026F0008168704A114041F0805181606E486F4995
:102700000068B0FBF1F04000801C00E0401E00902B
:102710000028FBD120688168C1F3007141B9E16DE7
:1027200041F01001E165216E41F0010121660125B2
:1027300003F056F8E16DC90600D430B1E06D40F009
:102740001000E06501252846F8BDE06D20F480709A
:1027500040F00200E0652068816811F0010F27D188
:102760004FF0A043564A984201D0904204D1996854
:10277000966801F001010AE052498968524E01F061
:102780000101B66806F001063143504EB66806F006
:10279000010631430CD1984201D0904201D14C48FE
:1027A00000E04C486168826822F47C120A4382602F
:1027B000E168E06B627F0843A16841EA4231084367
:1027C00094F8241040EA0140012904D1218D424AA5
:1027D00002EB41410843E16A29B101F47871226BAF
:1027E000014342EA01002268D1683C4B1940014391
:1027F000D16020680169626B21F040611143016181
:10280000206802F0E5FF70BB207F94F83810226842
:10281000800340EA4100D16844F202039943014336
:10282000D16020690028206801690AD041F4803114
:102830000161206850F8C01F22696FF30D01114338
:1028400007E021F480310161206850F8C01F6FF368
:102850000D01016094F8400001280CD02068016946
:1028600021F001010161606901282068016B21F0FC
:102870000F0111D013E0D4E911010843D4E9131278
:102880001143084321680A6940F2FC739A431043DC
:1028900040F001000861E6E7226A521E114301631D
:1028A000E06D20F0020040F00100E0654BE7000021
:1028B000C0FFFF5FC0FFFF7F18000020400D030036
:1028C00000010050000400500005005000060050B8
:1028D00000030050000700500000FEFF0740F0FF1B
:1028E000704700002DE9F0419CB00446142115A862
:1028F000FDF7C8FC54216846FDF7C4FC4FF40041C5
:10290000206800268A033E4F03253E4C4FF0904836
:10291000B0F1A04F10D03C4B98426DD16846119257
:10292000009101F013F808B1FEF730F93868401C47
:102930003860012832D039E068461192009101F0E8
:1029400005F808B1FEF722F93868401C3860012804
:1029500007D1E06C40F40050E064E06C00F40050FB
:102960001A90E06C40F00100E064E06C00F00100BF
:102970001A90E06C40F00200E064E06C15A900F0F1
:1029800002001A90062081E86100404600F0D2F86B
:1029900015A9022081E861001C4823E0E06C40F4A6
:1029A0000050E064E06C00F400501A90E06C40F0DD
:1029B0000100E064E06C00F001001A90E06C40F06F
:1029C0000400E064E06C159500F00400CDE91656B3
:1029D0001A9015A9404600F0ADF815A9202081E80D
:1029E00061000B4800F0A6F800221146122000F00A
:1029F00031FA122000F020FA1CB0BDE8F08100008E
:102A000008000020001002400001005000040048AF
:102A10000008004810B590F8253000210122022B53
:102A200003D00421C163012122E003681C6824F063
:102A30000E041C60836C1C6824F480741C600368A2
:102A40001C6824F001041C6090F84430046C03F00E
:102A50001F0302FA03F36360D0E913345C60436D33
:102A600033B11C6824F480741C60D0E916345C60B7
:102A700080F82520002280F82420084610BD70B57B
:102A800090F82520002401212346022A07D00422A1
:102A9000C26380F8251080F82430012429E0026800
:102AA000156825F00E0515600268156825F001050A
:102AB0001560826C156825F48075156090F84420C7
:102AC000056C02F01F0201FA02F26A60D0E91325D8
:102AD0005560426D32B1156825F480751560D0E9F6
:102AE0001625556080F8251080F82430816B01B1DF
:102AF0008847204670BD000010B5402806D1064C1E
:102B0000207820B103F02AF90020207010BD03F0D6
:102B100007F90120F9E7000024000020044910B55E
:102B20000A68024202D00860FFF7E6FF10BD00000D
:102B3000140401402DE9F04FDFF820920023012614
:102B40000324A9F1040B85B00F2709F1040AABF1A6
:102B5000040EFAE006FA03F52A407CD091F804C08E
:102B60000CF0030CBCF1010F02D0BCF1020F26D116
:102B7000D0F808C0CDF800C04FEA430C04FA0CF8B6
:102B8000CDF810C0DDF800C02CEA080CCDF800C06C
:102B9000D1F80C80DDF810C008FA0CF8DDF800C0A0
:102BA00048EA0C08C0F80880D0F804C02CEA050CEC
:102BB0000D79C5F300159D4045EA0C0545600D797A
:102BC000ED43AD070ED0C5684FEA430804FA08FC90
:102BD00025EA0C05D1F808C00CFA08FC4CEA050CF3
:102BE000C0F80CC00D7905F00305022D16D1DD08E3
:102BF00000EB850CCDF808C0DCF820805D074FEABB
:102C0000D56C07FA0CF528EA05080D6905FA0CF5EC
:102C1000DDF808C045EA0805CCF8205005684FEA01
:102C2000430CCDF808C004FA0CFC25EA0C0591F819
:102C300004C00CF00308DDF808C008FA0CF848EAF4
:102C40000508C0F800804D6815F4403F7CD0444D25
:102C5000D5F860C000E077E04CF0010CC5F860C02A
:102C60002D6E23F0030C05F0010500953D4D6544E4
:102C70000295AD684FEA837C4FEA1C7807FA08FC9E
:102C800025EA0C05B0F1904F06D0DFF8DCC06045B6
:102C900005D14FF0010C20E04FF0000C1DE0DFF8F3
:102CA000CCC0604502D14FF0020C16E0DFF8C0C086
:102CB000604502D14FF0030C0FE0DFF8B8C060456B
:102CC00002D14FF0040C08E0DFF8ACC0604502D13F
:102CD0004FF0050C01E04FF0060C0CFA08FC4CEA32
:102CE000050C029DC5F808C0D9F80050CC46D1F8B3
:102CF000048095435FEAC82800D51543CCF80050FE
:102D0000DAF80050D446D1F8048095435FEA882869
:102D100000D51543CCF80050DBF80050DC46D1F864
:102D2000048095435FEA883800D51543CCF80050FD
:102D3000DEF80050F446D1F8048095435FEAC838C5
:102D400000D51543CCF800505B1C0A6832FA03F535
:102D50007FF400AF05B0BDE8F08F0000080401402B
:102D60000010024000000140000400480008004834
:102D7000000C004800100048001400480AB18161AE
:102D8000704781627047000001488068704700000A
:102D90000C0000200248816842681144816070473D
:102DA0000C00002010B50024032000F073F80F2061
:102DB00000F008F808B1012401E000F025F82046F1
:102DC00010BD000070B50E4E05460024706898B125
:102DD0004FF47A71B1FBF0F00A490968B1FBF0F0E9
:102DE00001F05CFC40B9102D06D200222946501E8D
:102DF00000F030F8356000E00124204670BD00008E
:102E00000C000020180000200A4882B0016E41F03A
:102E100001010166016E01F001010091816D41F037
:102E200080518165806D00F08050009002B000F00C
:102E300085BD000000100240002809DB00F01F02E1
:102E4000012191404009800000F1E020C0F800110C
:102E500070470000F0B40E4B1B680C46C3F302230E
:102E6000C3F10705042D00D90425191D072901D236
:102E7000002300E0DB1E012606FA05F1491E214071
:102E800099409E40761E16403143F0BC05F079BF54
:102E90000CED00E0064900F0070208684FF6FF035A
:102EA000184040EA0220034A1043086070470000BF
:102EB0000CED00E00000FA0501220168C0F8D02204
:102EC000002280F8C82231F8540F40F00100088039
:102ED000088840F0020008801046704770B50F4D1A
:102EE000044669B101290AD1D4F8D80205F035F8B1
:102EF000607A002803D0286840F00600286070BD82
:102F0000607A28B103F022FB286820F006002860D0
:102F1000D4F8D802BDE8704004F0B7BF10ED00E06F
:102F200010B50C0607D501F0070101EB810100EB9C
:102F3000C100103005E001EB810100EBC10000F59C
:102F4000A87099B232B1012202730181190C41813A
:102F5000002010BD00220273C180F9E701EB81025D
:102F600000EBC202D0F8D802526A04F06DBE01EB49
:102F7000810200EBC202D0F8D802D2F8642104F03A
:102F8000B7BE70B504460B0601F0070000EB8001E8
:102F900004EBC1014FF001024FF0000502D54A7465
:102FA000103103E081F8515101F5A871087094F8CF
:102FB0009002012808D084F89022206805F018FBC0
:102FC00084F89052002070BD022070BD70B5044698
:102FD00001F00F002279904201D9012070BD0B064B
:102FE00001F0070000EB800104EBC1014FF001028A
:102FF0004FF0000502D54A74103103E081F85151B9
:1030000001F5A8718D70087094F89002012808D01D
:1030100084F89022206805F08AFB84F89052002002
:1030200070BD022070BD2DE9F04704685FEA424898
:103030000B788D69B4F850804FF0000C4BF68F7709
:1030400048F2800648F68F7948F2C00A444428D5F1
:1030500040F2024808EBC30834F80840C4F30904FE
:10306000A54203D32D1B8D6102D00BE0C1F818C01F
:10307000D0F800C03CF823503D4085F4005535435E
:103080002CF82350520609D50B78056835F8232013
:1030900002EA090242EA0A0225F8232074B30A89E7
:1030A00027E040F2064808EBC30834F80840C4F3B0
:1030B0000904A54203D32D1B8D6102D00BE0C1F89A
:1030C00018C0D0F800C03CF823503D4085F40055AE
:1030D00035432CF82350520609D40D78036833F891
:1030E000252002EA090242EA0A0223F825202CB12F
:1030F0004A8949690068234605F0F1FD2046BDE88C
:10310000F0872DE9F047054600680C465FEA426803
:103110001646D1F818C02278B0F8508048F68F775C
:103120004CF280094FF400434FF6FF7A4FF0000154
:10313000404472D540F2024808EBC20830F808005B
:10314000C0F30900844514D9BCEB000CC4F818C0C6
:1031500010D0760408D5D5F800C03CF822603E4077
:1031600046EA09062CF8226094F82420012A47D068
:1031700056E1A161607810B1012813D01AE02868E7
:10318000B0F85030184400EBC200B0F80224C2F38B
:103190000902A0F80224B0F8022442F40042A0F888
:1031A000022407E02868B0F85030184400EBC20051
:1031B000A0F802146278286812B1012A11D018E030
:1031C000B0F850100844217800EBC100B0F80614A4
:1031D000C1F30901A0F80614B0F8061441F4004147
:1031E00005E0B0F850201044227800EBC200A0F8AF
:1031F000061421782846FFF7B1FE70046ED40FE163
:10320000626902446261E2690244E2612669226AFB
:10321000B24203D33046111A04E040E084F824108F
:103220000AB110462162617811B101292BD033E037
:103230002968B1F850201144227801EBC201B1F89D
:103240000224C2F30902A1F8022401F202413E283D
:1032500009D94209C60600D1521E0E8843EA8222CD
:1032600016430E8018E048B14208C30700D0521C34
:103270000B880AEA822213430B800DE00A8842F48D
:1032800000420A8008E02968B1F8502011442278F1
:1032900001EBC201A1F8020483B22289BCE040F232
:1032A000064808EBC20830F80800C0F3090084455E
:1032B00015D3BCEB000CC4F818C011D0760408D4A8
:1032C000D5F800C03CF822603E4046EA09062CF8DA
:1032D000226094F82420012A51D0A1E045E0A161A8
:1032E000607810B1012813D01AE02868B0F8503087
:1032F000184400EBC200B0F80224C2F30902A0F89F
:103300000224B0F8022442F40042A0F8022407E0AC
:103310002868B0F85030184400EBC200A0F802143E
:103320006278286812B1012A11D018E0B0F8501064
:103330000844217800EBC100B0F80614C1F309017C
:10334000A0F80614B0F8061441F4004105E0B0F806
:1033500050201044227800EBC200A0F80614217817
:103360002846FFF7FBFD70045AD421782A6832F80A
:103370002100384040EA090022F8210050E062694B
:1033800002446261E2690244E2612669226AB24251
:1033900003D33046111A216204E00AB110462162BB
:1033A00084F824106278296812B1012A2AD031E009
:1033B000B1F850201144227801EBC201B1F8062483
:1033C000C2F30902A1F8062401F206413E2809D9F8
:1033D0004209C60600D1521E0E8843EA82221643D5
:1033E0000E8017E048B14208C30700D0521C0B887A
:1033F0000AEA822213430B800CE00A8842F400425E
:103400000A8007E0B1F850201144227801EBC20194
:10341000A1F80604628983B26169286805F07AFC24
:1034200021782A6832F8210048F6BF73184080F0EE
:10343000300048F28003184322F821000020BDE844
:10344000F08701F0070101EB810100EBC100D0F82A
:103450006C0170472DE9F04104460F0601F00700AA
:1034600000EB800104EBC1014FF001064FF00005B5
:1034700002D54E74103103E081F8515101F5A87165
:10348000022B08700A61CB7000D10D7194F8900284
:10349000012809D084F89062206804F05BFF284678
:1034A00084F89052BDE8F0810220FBE710B501F0EE
:1034B000070404EB840100EBC101C1E95923002298
:1034C000C1F86C2181F8512181F85041006801F563
:1034D000A87105F081F9002010BD70B5044601F017
:1034E00007002279904201D9012070BD0B064FF0F0
:1034F00000054FF0010206D500EB800104EBC1018D
:103500004A74103107E001EB810104EBC10181F83D
:10351000515101F5A8718A70087094F89002012841
:1035200008D084F89022206805F03DF984F8905284
:10353000002070BD022070BD10B501F0070404EB3F
:10354000840100EBC101C1E90923012281F8342083
:103550000B630023CB624A7401F8104F006805F03A
:103560003BF9002010BD10B50446006805F0B4FB1F
:10357000010404D52046BDE8104002F00EBC410510
:103580000ED5206830F8441F21F480610180204668
:1035900000F008F92046BDE81040002100F02EB9E7
:1035A000410405D5206830F8441F21F480417DE0B6
:1035B000810405D5206830F8441F21F4005175E0DE
:1035C000C1041FD5206830F8401F21F0040101809C
:1035D000206830F8401F21F00801018094F8C802EB
:1035E000012806D1002084F8C80201462046FFF7D2
:1035F00075FC204600F0EAF8206830F8441F21F4FA
:10360000805153E0010512D5206830F8401F41F089
:1036100008010180206830F8441F21F40061018016
:10362000206830F8401F41F0040101800AE00106E3
:1036300029D5206830F8441F21F08001018094F8DA
:10364000C80218B1204600F009F910BD206830F812
:10365000401F41F004010180206830F8401F41F014
:1036600008010180012084F8C8022068B0F85400E5
:103670003C2101EA9000C4F8CC022046BDE810408D
:103680000121FFF72BBC810509D5206830F8441FC4
:1036900021F400710180204600F0ACF810BDC00597
:1036A000FCD5206830F8441F21F48071018010BDE2
:1036B00070B5040004D094F89102002510B106E022
:1036C000012070BD84F89052204600F03FF803209E
:1036D00084F89102206805F022F8002001260BE012
:1036E00000EB800104EBC1014E740874CD740D62CF
:1036F0004D62401CC0B28D6221798142F0D8002019
:1037000012E000BF00EB800104EBC10181F85151D0
:1037100081F8500181F85351C1F86051C1F86451EA
:10372000401CC0B2C1F8685121798142EAD894E8BE
:10373000070004F0EBFF257384F89162A07A01285A
:1037400002D12046FFF7B8FB002070BD10B596B03F
:10375000044654216846FCF795FD104920688842CC
:103760001AD14014009000200F90684600F0EEF847
:1037700008B1FDF70BFA0A48816D41F4000181653B
:10378000806D002200F40000159011461420FFF710
:1037900061FB1420FFF750FB16B010BD005C004029
:1037A0000010024070B5044640790125022801D07E
:1037B000FDF7ECF92946D4F8D80204F080FBD4F8E0
:1037C000D802BDE8704004F033BB000010B50446D9
:1037D000407A30B10648016821F00601016002F02C
:1037E000B5FED4F8D802BDE8104004F04EBB00008E
:1037F00010ED00E0D0F8D80204F051BB10B504463B
:1038000090F8900201280AD0012084F890022173D8
:10381000206805F078FA002084F8900210BD02209C
:1038200010BDD0F8D82200F52671104604F053BB25
:1038300010B5044690F8900201280CD0012084F8BD
:103840009002206805F039FA206804F058FF002043
:1038500084F8900210BD022010BD000010B504468F
:10386000D0F8D80204F079FB607A002804D003482D
:10387000016841F00601016010BD000010ED00E09C
:103880002B492C4B0A6832214A432B4940B1B0F5F1
:10389000007F086829D020F4C06040F480602CE0EC
:1038A0000868C0F34120022804D051F8800F20F4AA
:1038B000807022E0D1F8800020F48070C1F8800090
:1038C000086820F4C06040F400700860B2FBF3F0B8
:1038D000401C00E0401E4A69520501D50028F9D17C
:1038E000486940050AD503207047C0F341200228EB
:1038F00006D051F8800F40F48070086000207047B7
:10390000D1F8800040F48070C1F88000086820F48D
:10391000C06040F400700860B2FBF3F0401C00E0AF
:10392000401E4A695205DBD50028F9D1D8E70000CE
:103930001800002040420F000070004002488168DB
:1039400041F4804181607047007000402DE9F843E8
:10395000044600680026BB4D00035ED5A86D002715
:10396000C00008D4A86D40F08050A865A86D01275C
:1039700000F080500090DFF8D092D9F8001041F4A8
:103980008071C9F80010FFF7FFF9804606E000BF1C
:10399000FFF7FAF9A0EB080002282BD8D9F80000AD
:1039A000C005F5D5D5F8900010F4407014D0216D05
:1039B000814211D0D5F89000D5F8901020F44070D5
:1039C00041F48031C5F89010D5F8901021F4803181
:1039D000C5F89010C5F89000C00711D0FFF7D4F9D2
:1039E000804641F2883907E0FFF7CEF9A0EB0801E5
:1039F000494501D903260BE0D5F890008007F3D59F
:103A0000D5F89000216D20F440700843C5F890006F
:103A10001FB1A86D20F08050A8652078C00707D09E
:103A2000D5F88800616820F003000843C5F88800D5
:103A30002078800707D5D5F88800A16820F00C0011
:103A40000843C5F888002078400707D5D5F88800D6
:103A5000E16820F030000843C5F8880020780007AE
:103A600007D5D5F88800216920F0C0000843C5F8C3
:103A700088002078C00607D5D5F88800616920F451
:103A800040700843C5F888002078800607D5D5F82F
:103A90008800A16920F440600843C5F888002078B8
:103AA000400607D5D5F88800E16920F44050084366
:103AB000C5F888002078000607D5D5F88800216A67
:103AC00020F440400843C5F888002088C00507D589
:103AD000D5F88800616A20F440300843C5F88800B2
:103AE0002068800307D5D5F89C00A16A20F0030068
:103AF0000843C5F89C002088800507D5D5F88800C4
:103B0000E16A20F440200843C5F888002088400579
:103B10000FD5D5F88800216B20F440100843C5F874
:103B20008800206BB0F5801F03D1E86840F4801056
:103B3000E860208800050FD5D5F88800616B20F477
:103B400040000843C5F88800606BB0F5800F03D1D2
:103B5000E86840F48010E8602088C0040FD5D5F8EC
:103B60008800A16B20F040700843C5F88800A06B66
:103B7000B0F1807F03D1E86840F48010E8602088CD
:103B80004FF0006180040ED5D5F88800E26B20F07C
:103B900040601043C5F88800E06B884203D1E868B4
:103BA00040F48010E860208840040ED5D5F88800E5
:103BB000226C20F040601043C5F88800206C8842D9
:103BC00003D1E86840F48010E860208800040FD535
:103BD000D5F88800616C20F040500843C5F8880093
:103BE000606CB0F1805F03D1E86840F48030E86039
:103BF0002068C0030FD5D5F88800A16C20F04040A4
:103C00000843C5F88800A06CB0F1804F03D1E86884
:103C100040F48030E860206840030FD5D5F89C0060
:103C2000E16C20F440100843C5F89C00E06CB0F54E
:103C3000001F03D1E86840F48010E8603046BDE81A
:103C4000F883000000100240007000402DE9F047AA
:103C50000E4605004FF0000725D0DFF8AC81D8F8FC
:103C6000000000F00F00B0420CD2D8F8001021F094
:103C70000F013143C8F80010D8F8000000F00F0021
:103C8000B04210D12968614CC80741F2883A5AD035
:103C90006868DFF87C91032808D0022820682DD0BE
:103CA000400500282CDB0120BDE8F087206880015A
:103CB000F9D5E06800F00302E068C0F30310401C8F
:103CC000032A19D0534A00BFB2FBF0F0E268C2F3F6
:103CD00006225043E268C2F34162521C5200B0FB1C
:103CE000F2F0484517D9A06810F0F00F0CD0880703
:103CF00011D5A86840B10EE0474AE5E78003D0E758
:103D000000F0B6F8484506D9A06820F0F00040F071
:103D10008000A0608027A068696820F00300084345
:103D2000A060FFF731F8814606E000BFFFF72CF8EE
:103D3000A0EB090151453AD8A068696800F00C0071
:103D4000B0EB810FF2D12868810714D5400703D565
:103D5000A06840F4E060A0602878000705D5A0685E
:103D600020F4605040F4E060A060A068A96820F0F2
:103D7000F000084304E0802F03D1A06820F0F00099
:103D8000A060D8F80010404601F00F01B14216D9EA
:103D9000016821F00F0131430160FEF7F5FF07468E
:103DA00007E000BFFEF7F0FFC11B514501D903201A
:103DB0007AE7D8F8000000F00F00B042F2D128787E
:103DC000400705D5A068E96820F4E0600843A060DA
:103DD0002878000706D5A068296920F4605040EAD9
:103DE000C100A06000F044F8A1680C4AC1F30311BF
:103DF000515C01F01F01C84009490860094800688A
:103E0000BDE8F047FEF7DEBF002002400010024090
:103E100000B4C4040024F40000127A00FCA60008D8
:103E2000180000200C000020054806490068896839
:103E3000054AC1F30221515C01F01F01C8407047DF
:103E400018000020001002400CA700080548064991
:103E500000688968054AC1F3C221515C01F01F0165
:103E6000C840704718000020001002400CA700084E
:103E7000184910B58868C0F381021748012A0BD091
:103E80008A684310C2F38102022A06D08A68C2F30C
:103E90008102032A03D0002010BD184610BDCA6855
:103EA00002F00304CA68C2F30312521C032C02D0AE
:103EB000B0FBF2F001E0B3FBF2F0CA68C968C2F3EC
:103EC00006225043C1F34161491C4900B0FBF1F0A7
:103ED00010BD0000001002400024F4002DE9F8435A
:103EE00004007AD02078F84DC00747D0A868E96868
:103EF00000F00C0001F003010C2802D0082817D0B4
:103F000001E0032914D06068B0F5803F17D0B0F508
:103F1000A02F286817D020F480302860286820F46B
:103F2000802028606068E0B1FEF72EFF064614E0AE
:103F30002868800322D560680028D2D01EE0286857
:103F400040F48030EDE740F480202860F7E700BFC0
:103F5000FEF71AFF801B642870D828688003F7D505
:103F60000CE0FEF711FF064605E000BFFEF70CFF70
:103F7000801B6428F0D828688003F7D42078800755
:103F80004CD5A868E96800F00C0001F003010C288A
:103F900002D004280DD001E002290AD0E0680028F0
:103FA00028682BD040F480702860FEF7EDFE0646AE
:103FB00019E02868400502D5E068002891D06868BB
:103FC000217C20F0FE4040EA01606860BF48006844
:103FD000FEF7F8FE002800D120E072E1FEF7D4FEE3
:103FE000801B0228B8D828684005F7D56868217C6E
:103FF00020F0FE4040EA016068600FE020F480702D
:104000002860FEF7C1FE064605E000BFFEF7BCFED5
:10401000801B0228A0D828684005F7D42078000724
:1040200029D560690028D5F8940013D040F001002C
:10403000C5F89400FEF7A8FE064606E090E000BF33
:10404000FEF7A2FE801B022886D8D5F894008007D0
:10405000F6D510E020F00100C5F89400FEF794FEBC
:10406000064604E0FEF790FE801B022878D8D5F8BB
:1040700094008007F6D42078400761D5A86D00260B
:10408000C00008D4A86D40F08050A865A86D012636
:1040900000F0805000908E480168C90511D4016875
:1040A000804641F480710160FEF76EFE074604E031
:1040B000FEF76AFEC01B022852D8D8F80000C005DF
:1040C000F6D5A068012815D00528D5F8900016D09F
:1040D00020F00100C5F89000D5F8900020F0040011
:1040E000C5F89000A06841F28838B8B1FEF74CFEE0
:1040F00007460EE0D5F8900040F00100F0E740F0F0
:104100000400C5F89000F5E7FEF73EFEC11B4145EF
:1041100026D8D5F890008007F6D50CE0FEF734FEDF
:10412000074604E0FEF730FEC11B414518D8D5F81C
:1041300090008007F6D41EB1A86D20F08050A865CD
:104140002078800629D5A0690028D5F8980013D0DA
:1041500040F00100C5F89800FEF716FE064606E09E
:1041600075E000BFFEF710FE801B02286FD8D5F85F
:1041700098008007F6D510E020F00100C5F89800FF
:10418000FEF702FE064604E0FEF7FEFD801B022855
:104190005DD8D5F898008007F6D4E069F0B3A96837
:1041A000C1F3810103295DD00228286820F08070C6
:1041B000286003D0FEF7E8FD04464BE0FEF7E4FD7F
:1041C000064604E0FEF7E0FD801B02283FD8286881
:1041D0008001F7D4F4E908016FF00F0202EB01113E
:1041E0000843218A5204490802EB4151A26841EA7E
:1041F00002210843217D4FF07E42490802EB4161D4
:104200000843217B40EAC160E968324A1140084313
:10421000E860286840F08070286000E05EE0E868B0
:1042200040F08070E860FEF7AFFD044605E000BF97
:10423000FEF7AAFD001B022809D828688001F7D5DF
:104240004CE000BFFEF7A0FD001B022802D90320AE
:10425000BDE8F88328688001F4D4E8681E49084066
:10426000E8603BE00128F3D0E868226A00F003012F
:10427000914226D1616A00F0F002090110399142A1
:104280001FD1A26A00F4FE41B1EB022F19D194F8BC
:104290002C2000F07841B1EBC26F12D1218E00F4D6
:1042A000C00249084905A1F50011914209D194F8CD
:1042B000341000F0C06049084906A1F10071814244
:1042C0000CD00120C4E70000001002400C000020C8
:1042D000007000400C809F01FCFFEEFE0020B7E75D
:1042E00070B5040009D0606A002540B125616561A0
:1042F000A56294F85D0040B10CE0012070BD6068DB
:10430000B0F5827FF4D0E561F2E784F85C50204696
:1043100000F05CF8022084F85D002068016821F05C
:1043200040010160E1684FF4E062914201D9002050
:1043300001E04FF48050B1F5706F02D0914200D08F
:10434000A562A188228901F4827102F4044211431A
:10435000227C02F002021143227D02F0010211438D
:10436000228B02F400721143227F02F038021143C3
:1043700094F8202002F080021143228D02F40052B2
:10438000114322681160A169042202EA114194F8E4
:10439000242000F4805002F01002114394F83420DD
:1043A00002F008021143A28902F470621143014332
:1043B000206841602068C16921F40061C1612566FF
:1043C000012084F85D00002070BD000010B586B0AB
:1043D000044614216846FBF755FF124920688842BD
:1043E0001DD11148016E41F480510166016E01F446
:1043F00080510591C16C41F00201C164C06C6946F5
:1044000000F002000590382000900220019000206A
:1044100002900390052004900448FEF78BFB06B041
:1044200010BD0000003001400010024000040048B0
:104430002DE9FF5F044690F85C0000260E9F1D46A4
:1044400093464FF0010901280FD04FF0010A84F87C
:104450005CA0FEF799FC804694F85D006168012835
:104460000DD0B1F5827F08D103E0022004B0BDE891
:10447000F09FA16809B9042801D0022609E101983A
:10448000002876D0BBF1000FFBD0002DF9D094F8B6
:104490005D00042802D0052084F85D00002020661D
:1044A000C4F840B0A4F84650A4F844500199A16360
:1044B000E587A587E0642065E0684FF4E061884205
:1044C00001D8012D04D92068426822F4805203E00B
:1044D0002068426842F480524260206802685206B6
:1044E00003D4026842F040020260E06888426068DB
:1044F00048D908B1012D3DD1A06B21680088C86062
:10450000A06B801CA063E08F401EE08732E0206833
:10451000816889070FD5E18F69B1B9F1010F0AD11F
:10452000A16B0988C160A06B801CA063E08F401E56
:10453000E0874FF0000920688168C9070FD0B4F800
:10454000461061B1C068216C0880206C801C20641A
:10455000B4F84600401EA4F846004FF00109FEF7EB
:1045600013FCA0EB0800B84204D3781C02D0032649
:104570008DE08AE0E08F0028C9D1B4F84600002819
:10458000C5D177E008B1012D6DD1E08F0128A06B76
:1045900008D921680088C860A06B801CA063E08FE8
:1045A000801E07E0216800780873A06B401CA063A0
:1045B000E08F401EE08756E02068816889071AD5A1
:1045C000E18FC1B1B9F1010F15D1E18F0129A16BC3
:1045D00007D90988C160A06B801CA063E08F801E92
:1045E00006E009780173A06B401CA063E08F401EB9
:1045F000E0874FF0000920688168C90728D0B4F827
:10460000461029B3B4F84610012914D9C068216CAA
:104610000880206C801C2064B4F84600801EA4F83A
:104620004600B4F84600012810D82068416841F4DB
:10463000805141600AE0007B216C0870206C401CB6
:104640002064B4F84600401EA4F846004FF001096B
:10465000FEF79AFBA0EB0800B84202D3781C02D008
:1046600085E7002F83D0E08F0028A5D1B4F846005D
:104670000028A1D142463946204601F06FFE10B114
:10468000012620202066206E08B1012601E084F872
:104690005DA0002084F85C003046E7E610B5401EBF
:1046A000B0F1807F01D3012010BD4FF0E0246061A4
:1046B0000F21601704F065FB0020A0610720206136
:1046C000002010BD704770477047000030B590F86B
:1046D0003C20012A45D0012280F83C20CA688B6822
:1046E00022F440721A434B6822F480621A430B682A
:1046F00022F400621A430B6922F480521A434B6978
:1047000022F400521A430B6B22F480421A430B8BA3
:1047100022F4702242EA0342CB6922F080521A430B
:10472000114D03680024AB4205D0104DAB4202D0BE
:104730000F4DAB4210D10D8D22F4700242EA0552AA
:104740000D6A22F080722A434D6A22F000722A43D9
:10475000C96A22F000520A435A6480F83C400020A3
:1047600030BD022030BD0000002C0140003401406B
:10477000005001407047704770470000F0B590F856
:104780003C20012A43D0012580F83C50022280F8C9
:104790003D2003685A689C681E4E1F4FDFF87CC09E
:1047A000B34203D0BB4201D0634504D122F4700E62
:1047B0004A6842EA0E02DFF868E002EA0E02D1F827
:1047C00000E04EEA020EC3F804E00268B24212D0E2
:1047D000B2F1804F0FD0134B9A420CD0124B9A4239
:1047E00009D0124B9A4206D0BA4204D0104B9A42DA
:1047F00001D0624504D1896824F080031943916097
:1048000080F83D50002180F83C100846F0BD0220A1
:10481000F0BD0000002C0140003401400050014078
:104820008FFFFFFD0004004000080040000C004026
:104830000040014010B50446022249B104290ED0BF
:10484000082913D094F84700012816D0012010BD84
:1048500094F844000128F9D184F844200FE094F83A
:1048600045000128F2D184F8452008E094F846007C
:104870000128EBD184F8462001E084F84720042287
:10488000206801F02CFF2068416C41F40041416434
:1048900013492068884214D0B0F1804F11D01149DB
:1048A00088420ED0104988420BD01049884208D067
:1048B0000F49884205D00F49884202D00E498842EC
:1048C00007D181680D4A1140062906D0B1F5803F15
:1048D00003D0016841F001010160002010BD00001B
:1048E000002C01400004004000080040000C004083
:1048F0000034014000400140005001400700010029
:1049000070B504460D460068002201F0E8FE2068FC
:10491000036A41F211110B4244F2444206D1036A88
:10492000134203D1436C23F4004343642068036AB9
:104930000B4206D1016A114203D1016821F0010145
:10494000016001203DB1042D08D0082D09D084F864
:104950004700002070BD84F84400FAE784F8450061
:10496000F7E784F84600F4E7704710B5040003D079
:1049700094F83D0010B107E0012010BD002084F83C
:104980003C00204600F022F8022084F83D00211D62
:10499000206801F025FE012084F8480084F83E00DC
:1049A00084F83F0084F8400084F8410084F8420015
:1049B00084F8430084F8440084F8450084F84600F5
:1049C00084F8470084F83D00002010BD08B5006859
:1049D0000F4988421AD10F48016E41F40061016607
:1049E000006E002200F40060009011461820FEF7CF
:1049F00031FA1820FEF720FA002211461920FEF79E
:104A000029FABDE808401920FEF716BA08BD0000D3
:104A1000002C01400010024090F83D10012901D007
:104A200001207047022180F83D1000681249884239
:104A300014D0B0F1804F11D0104988420ED01049E7
:104A400088420BD00F49884208D00F49884205D0D0
:104A50000E49884202D00E49884207D181680D4A2A
:104A60001140062906D0B1F5803F03D0016841F01E
:104A70000101016000207047002C0140000400404B
:104A800000080040000C004000340140004001409C
:104A9000005001400700010070B5044690F83C004A
:104AA000002501281CD0012684F83C60022084F8EF
:104AB0003D0022689068334B184020F47F4090609E
:104AC0000868B0F5005F2ED016DC402849D009DC1C
:104AD000D0B1102818D0202816D0302849D113E0A2
:104AE000022070BD50282AD0602830D070280FD006
:104AF000B0F5805F3DD13DE010F00F0F39D10111CD
:104B0000A1F58031072934D822680146104625E0F6
:104B1000CB68D1E90121206801F0EEFD20688168B1
:104B200041F0770109E0CB68D1E90121206801F06B
:104B3000E3FD2068816841F4804181601AE0CA6821
:104B40004968206801F0ACFF5021206806E0CA687F
:104B50004968206801F0B5FF6021206801F0D6FDAA
:104B600008E0CA684968206801F09AFF402120687F
:104B7000F4E7012584F83D60002084F83C002846D5
:104B800070BD000088FFCEFF70472DE9F04104465C
:104B90000068C66805694FF00007A90713D5B1077B
:104BA00011D5F91E016101202077206880698007F6
:104BB000204602D0FFF7E8FF04E000F001F92046AC
:104BC00000F0C3F92777680716D5700714D5216858
:104BD0006FF004000861022020772068806910F4DB
:104BE000407F204602D0FFF7CFFF04E000F0E8F856
:104BF000204600F0AAF92777280715D5300713D5E6
:104C000021686FF008000861042020772068C069DF
:104C10008007204602D0FFF7B7FF04E000F0D0F88D
:104C2000204600F092F92777E80616D5F00614D54D
:104C300021686FF010000861082020772068C069A3
:104C400010F4407F204602D0FFF79EFF04E000F002
:104C5000B7F8204600F079F92777E80708D0F00781
:104C600006D021686FF001000861204600F054FA78
:104C7000280601D4A80408D5300606D521686FF4AB
:104C8000025008612046FFF71EFDE80508D53006F2
:104C900006D521686FF4807008612046FFF712FD89
:104CA000680608D5700606D521686FF040000861D7
:104CB000204600F032FAA80608D5B00606D52168CD
:104CC0006FF0200008612046FFF7FEFCE80208D5DF
:104CD000F00206D521686FF4801008612046FFF7C6
:104CE0004AFDA80208D5B00206D521686FF400106D
:104CF00008612046FFF73EFD680208D5700206D520
:104D000021686FF4800008612046FFF735FD280216
:104D10000AD5300208D521686FF4000008612046EA
:104D2000BDE8F041FFF720BEBDE8F081F0B587B0E7
:104D3000044614216846FBF7A5FA1E4920688842FC
:104D400036D11D48C16C41F00201C164C16C01F053
:104D500002010591C16C41F00101C164C06C0225E2
:104D600000F0010005904FF4C04000900024CDE910
:104D700001540626114FCDE9034669463846FDF732
:104D8000D9FEA8030090CDE901540420CDE90340E9
:104D900069463846FDF7CEFE4FF4E0600090CDE95D
:104DA0000154CDE9034669464FF09040FDF7C2FE3D
:104DB00007B0F0BD002C0140001002400004004884
:104DC000704770B5044690F83C0000260D46012857
:104DD0000BD0012084F83C000C2A4AD007DC82B1B9
:104DE000042A20D0082A06D131E0022070BD102A02
:104DF00053D0142A63D00126002084F83C003046AA
:104E000070BD206801F08CFC2068816941F00801C8
:104E100081612068816921F00401816120688169D4
:104E20002A69114311E0206801F0D0FC20688169F3
:104E300041F4006181612068816921F480618161B0
:104E4000206881692A6941EA02218161D4E72068EA
:104E500001F00CFD2068C16941F00801C1612068C2
:104E6000C16921F00401C1612068C1692A69114347
:104E700011E0206801F04AFD2068C16941F4006139
:104E8000C1612068C16921F48061C1612068C16984
:104E90002A6941EA0221C161AEE7206801F086FD7E
:104EA0002068016D41F0080101652068016D21F065
:104EB000040101652068016D2A69114311E0206831
:104EC00001F0B0FD2068016D41F4006101652068CA
:104ED000016D21F4806101652068016D2A6941EA54
:104EE0000221016588E710B5040003D094F83D0065
:104EF00010B107E0012010BD002084F83C002046DE
:104F000000F022F8022084F83D00211D206801F005
:104F100067FB012084F8480084F83E0084F83F00D5
:104F200084F8400084F8410084F8420084F843008B
:104F300084F8440084F8450084F8460084F847006B
:104F400084F83D00002010BD7047704770B50446DE
:104F5000022269B1042912D0082917D00C291CD0CB
:104F6000102921D094F84300012824D0012070BDDD
:104F700094F83E000128F9D184F83E201DE094F811
:104F80003F000128F2D184F83F2016E094F8400059
:104F90000128EBD184F840200FE094F8410001286B
:104FA000E4D184F8412008E094F842000128DDD1E2
:104FB00084F8422001E084F843200122206801F0B7
:104FC00081FB1D4920681D4A1D4B1E4D88420BD098
:104FD000904209D0984207D01B4EB04204D01B4EDD
:104FE000B04201D0A84203D1466C46F40046466464
:104FF0002068884211D0B0F1804F0ED01449884209
:105000000BD01449884208D01349884205D09042F9
:1050100003D0984201D0A84207D181680F4A1140BD
:10502000062906D0B1F5803F03D0016841F00101A7
:105030000160002070BD0000002C014000340140E0
:105040000040014000500140004401400048014040
:105050000004004000080040000C00400700010070
:1050600030B504460D460068002201F02BFB244BAE
:1050700041F2111120688A0098420ED0214B9842CB
:105080000BD0214B984208D0204B984205D0204BA2
:10509000984202D01F4B984209D1036A0B4206D1B5
:1050A000036A134203D1436C23F400434364206832
:1050B000036A0B4206D1016A114203D1016821F053
:1050C0000101016001205DB1042D0CD0082D0DD02F
:1050D0000C2D0ED0102D0FD084F84300002030BDD1
:1050E00084F83E00FAE784F83F00F7E784F84000D0
:1050F000F4E784F84100F1E784F84200EEE70000AD
:10510000002C0140003401400040014000440140B7
:1051100000480140005001407047704790F88410EB
:10512000012918D0012180F884102421C0F88810AA
:1051300001680A680B6823F001030B6022F000513C
:1051400000224266036819602021C0F8881080F8A8
:10515000842010467047022070477047704770B532
:10516000044690F8840001281DD0012084F88400B2
:105170002420C4F8880020680568026822F0010233
:1051800002602068826822F060620A4382602046E2
:1051900001F0AAFC206805602020C4F888000020E7
:1051A00084F8840070BD022070BD70B5044690F88C
:1051B000840001281DD0012084F884002420C4F834
:1051C000880020680568026822F0010202602068F9
:1051D000826822F060420A438260204601F084FC2B
:1051E000206805602020C4F88800002084F884002E
:1051F00070BD022070BD7047704770472DE9F041C7
:1052000003680446D86919689A6840F60F05284271
:105210004FF000054FF002060AD187067ED501F057
:10522000200702F0805C57EA0C0777D0616F3AE103
:10523000B24FDFF8CCC2174001EA0C0C57EA0C0C55
:105240006CD05FEAC07C0CD05FEAC15C09D54FF03E
:10525000010CC3F820C0D4F8903043F00103C4F827
:105260009030830709D5D30707D023681E62D4F88E
:10527000903043F00403C4F8903043070AD5D307B5
:1052800008D0266804233362D4F8903043F0020338
:10529000C4F8903003070CD501F020033B4308D03D
:1052A000266808233362D4F8903043F00803C4F82A
:1052B000903003050BD54B0109D526684FF40063E8
:1052C0003362D4F8903043F02003C4F89030D4F81F
:1052D0009030002B3DD0800609D501F0200002F06F
:1052E0008051084303D0616F09B120468847D4F844
:1052F000900021688968490602D410F0280F2AD04E
:10530000204601F0D7FC2068806840061ED5206842
:10531000083050E8001F21F0400100E021E040E8A3
:105320000012002AF3D1D4F8800078B17549816366
:10533000D4F88000FDF7A3FB00280AD0D4F8800041
:10534000816B00E02046BDE8F04108472046FFF7AA
:1053500054FFBDE8F0812046FFF74FFFC4F890509E
:10536000F7E7D4F86CC02027BCF1010F7ED15FEACB
:10537000C06C7BD55FEAC16C78D5102018622068BC
:105380008068400645D5D4F880100868406800045D
:10539000000CDED0B4F85C208242DAD9A4F85E00BA
:1053A0000868006880062CD4216851E8000F20F4BA
:1053B000807041E80002002AF6D12068083050E8E9
:1053C000001F21F0010140E80012002AF5D12068F9
:1053D000083050E8001F21F0400140E80012002A88
:1053E000F5D1C4F88C70E566206850E8001F21F004
:1053F000100140E80012002AF6D1D4F88000FDF731
:1054000009FB2667B4F85C00B4F85E10401A81B25C
:1054100030E0B4F85C00B4F85E10401A81B2B4F821
:105420005E00002895D0002993D0226852E8000F32
:1054300020F4907042E80003002BF6D12F4BDB43A1
:105440002068083050E8002F1A4040E8002CBCF1DA
:10545000000FF5D1C4F88C70E5666567226852E8E4
:10546000000F20F0100042E8000300E006E0002BEF
:10547000F4D126672046FFF770FE6AE7C60209D519
:10548000560207D54FF4801018622046BDE8F0415F
:10549000FFF7B2BE03060AD501F0800302F4000252
:1054A000134304D0A16F00297FF44CAF51E74206AB
:1054B00011D54A060FD52046026852E8001F21F098
:1054C000400142E80013002BF6D1C0F888708567D0
:1054D00000F053F93DE7020206D54A0004D5204604
:1054E000BDE8F041FFF787BEC001C6D50029C4DA88
:1054F0002046BDE8F041FFF731BE0000010000107A
:1055000020010004A16C000810B5040003D0D4F8F9
:10551000880010B107E0012010BD002084F884004D
:10552000204600F027F82420C4F88800206801688D
:1055300021F001010160A06A10B1204601F0F6FAE5
:10554000204601F049FE0128E6D02068416821F498
:10555000904141602068816821F02A0181602068C3
:10556000016841F0010101602046BDE8104001F0F2
:1055700041BB000010B59CB00446142115A8FAF7F1
:1055800081FE54216846FAF77DFE1B492068884257
:105590002FD104200024009003946846FEF7D6F92A
:1055A00008B1FBF7F3FA1548816D41F4802181655C
:1055B000816D01F480211A91C16C41F00201C16436
:1055C000C06C15A900F002001A904FF440601590CD
:1055D0000220CDE916040720CDE918400848FDF760
:1055E000A9FA002211462720FDF734FC2720FDF7F9
:1055F00023FC1CB010BD0000004800400010024019
:105600000004004830B4D0F88C30202B02D00220A7
:1056100030BC7047A9B1A2B10023C3660A4C03682D
:10562000A3420BD05B681B0208D5046854E8003F16
:1056300043F0806344E80035002DF6D130BC01F022
:1056400017BF0120E4E700000080004070B51A4C4D
:1056500000254FF480762078FF280DD32570314641
:105660001648FAF70FFEBDE870404FF6FF730A22A6
:1056700013A1154800F02AB8104962780A54401C5A
:10568000C0B22070084410F8012C0A2A12D10978FF
:105690004F2905D110F8020C302808D000F040FB4B
:1056A00025703146BDE870400448FAF7EBBD00F0C4
:1056B00055FBF5E770BD00001C0000201804002019
:1056C0003F3F3F3F00000000840300202DE9F843E6
:1056D0000446D0F88800984616460D46202802D089
:1056E0000220BDE8F883A5B19EB10020C4F8900067
:1056F0002120C4F888001834FDF746FBA6878146B0
:10570000E68754F8100C2027183CB0F5805F02D0D3
:1057100003E00120E5E7206910B12E46002510E0E6
:1057200000260EE08021204601F02AFFC0B9DEB13C
:1057300016F8010B21688862B4F85600401EA4F8E0
:105740005600B4F856004B464FF00002CDF80080EA
:105750000028E7D14FF04001204601F011FF40B191
:10576000C4F888700320BCE735F8020BC0F30800CA
:10577000E0E7C4F888700020B3E77047FEE7000058
:10578000F0B500230A24302537261F4611E000BF5C
:10579000B4EB107F02D905EB107C01E006EB107C26
:1057A00001F813C001EB430C00015B1C8CF8017085
:1057B000DBB29342ECD3F0BD00EB8100006E00F051
:1057C000F840704700EB8100006E00F0F840704731
:1057D0008068C0F3C00070478068C0F3C0007047A5
:1057E0008068C0F3800070478068C0F38000704715
:1057F000C06810F4406F01D000207047012070474E
:10580000042303EAD15310B518444369C1F304518A
:1058100007248C40A3438A401343436110BD0423F3
:1058200003EAD15310B518444369C1F30451072466
:105830008C40A3438A401343436110BD00EB8100B9
:10584000016E21F0004111430166704700EB8100B9
:10585000016E21F00041114301667047F0B59BB025
:1058600000241794189420210FA81994FAF70AFD20
:105870003C216846FAF706FD30484FF0A041042568
:1058800001604FF44031C0E9011485610121C46019
:10589000C0E9044104774477016280F82440C4627F
:1058A000046380F83840C46380F84040FCF700FF90
:1058B00008B1FBF76BF917A920481794FCF7B4FA65
:1058C00008B1FBF763F91E480F9010AA06200226C4
:1058D0007F2782E8C100CDE913540FA91748FCF7D0
:1058E00053FB08B1FBF752F91648009001A90920B3
:1058F00081E8C100CDE9045480208DF824408DF862
:1059000025400A900B9008968DF826408DF830407F
:1059100069460A48FBF704FE08B1FBF737F90A4865
:10592000009040F20F10019069460448FBF7F8FD23
:10593000002801D0FBF72AF91BB0F0BDFC010020C4
:10594000001060320800900C0400600870B598B038
:1059500020210FA8FAF796FC3C216846FAF792FC42
:105960002E482D49002401604FF44031C0E9011454
:1059700000F1100101250426C46081E8700004775D
:105980004477056280F82440C462046380F838409C
:10599000C46380F84040FCF78BFE08B1FBF7F6F8D3
:1059A0001F480F900620CDE910057F251295CDE9FF
:1059B00013640FA91948FCF7E7FA08B1FBF7E6F8FA
:1059C000184800900920019002A90220059481E85E
:1059D0006100089080208DF824408DF825400A90C1
:1059E0000B908DF826408DF8304069460B48FBF748
:1059F00097FD08B1FBF7CAF80B48009040F20F1072
:105A0000019069460548FBF78BFD002801D0FBF7A4
:105A1000BDF818B070BD0000000100506802002001
:105A20000008302E040060080200300470B586B013
:105A300014216846FAF726FC2D48C16C41F020017C
:105A4000C164C16C01F020010591C16C41F00101FC
:105A5000C164C16C01F001010591C16C41F0040108
:105A6000C164C16C01F004010591C16C41F00201F7
:105A7000C164C16C01F002010591C16C41F00801E3
:105A8000C164C06C1B4D00F0080005900022042189
:105A90002846FDF773F9402000904FF404100024CD
:105AA000CDE90104144E69463046FDF743F84FF442
:105AB000607000904FF48810CDE9010469463046CB
:105AC000FDF738F804200121CDE900010220CDE9DD
:105AD000020169462846FDF72DF800220321172010
